:020000040005F5
:206000000040012021720500276E05007F6B0500836C0500836C0500836C05000000000022
:20602000000000000000000000000000836C0500836C050000000000836C0500836C050090
:20604000836C0500836C0500836C0500836C0500836C0500836C0500836C0500836C0500A0
:20606000836C0500836C0500836C0500836C0500836C0500836C0500836C0500836C050080
:20608000836C0500836C0500836C0500836C0500836C0500836C0500836C0500836C050060
:2060A000836C0500836C0500836C0500836C0500836C0500836C0500836C0500836C050040
:1860C000836C0500836C0500836C0500836C0500836C0500836C050010
:2060D8002DE9F04F9DB0A5484FF47051DFF890B2006801EA8020CBF8000000F09FFC044671
:2060F800002800F0EF8005AD10AE4FF000085FFA88F008212A46000300F064FD284600F02E
:20611800F5FF60B9284600F0E1FF002840F09E8008F101085FFA88F02C28E8D396E04FFA05
:2061380088FABAF1000F00F191804FEA0A3734213246384600F046FD9DF85000FE2840F0D6
:2061580082809DF84C0003287DD19DF84D00012879D19DF85100FC2875D01698DDF86C90A8
:206178004844B0F5801F6ED8FC202C212A468DF81300484600F026FD0B99484600F084FE3B
:20619800024601305FD00C9890425CD30B991144884258D80E980292801A411C48460B914C
:2061B80000F032FB039047F0100001210DF1130200F076FB0398002845D10020DBF800105E
:2061D8000B9B002200900298C0F3473000F0CAF80799884223D102980121470BFE208DF8CA
:2061F80013004FEA4A300DF1130A1130524600F057FBF8B211215246012300F027FE9DF849
:206218002600072815D8012101FA00F010F08B0F0FD000F071FE0C9800F0BAFF09E0FC20ED
:2062380001210DF113028DF8130009F1110000F037FBFC2001210DF113028DF8130009F169
:20625800100000F02DFB08F1010850E700F054FE002510AE012728463146082200F014FF66
:20627800304600F033FF40B3284631462C2200F00BFF9DF8520007281FD807FA00F010F050
:206298008A0F1AD01699481C022816D3B1F5B02F13D81798A84210D3294488420DD89DF8A0
:2062B8004C10032909D19DF84D10012905D19DF85110FE2901D300F06BFF05F50055B5F52E
:2062D800B02FC8D100F0AAFBE0B310AA0020342100F078FC9DF85100FE2833D116991B9EFB
:2062F8008819B0F5801F2DD8304600F0CDFD0546013027D01798A84224D316994A19904285
:2063180020D830462A4600F07FFAC8B90020DBF80010169B00220090C5F3473000F022F8FE
:20633800129988420CD1680BFE2101238DF81410C0B205AA112100F089FD179800F028FF05
:2063580000F0DAFD2CB100F00DFF00201DB0BDE8F08F00F0B3FC00F051FFFEE73024034019
:20637800000400202DE9F04F8BB08246581C022803D200200BB0BDE8F08F14981E460C46B5
:20639800B3F5801F01D90028F3D1B6F5B02F01D90028EED0069238B14E4A504600214FF47B
:2063B800807300F05DFE06E04A480AFB04F14FF4807200F0E2FE701E0123464F4FF0FF3952
:2063D800B0FBF4F101FB1400013082B2C5B2100A002D18BF03EB1220019008BF4FF480755B
:2063F8000595029401EB0A005146C0B208900898CEB286426AD8019A4FF0FF3018BF220A88
:2064180050FA82F0099207910A9006FB04F0002400F580700490481C039009985FFA84FBD9
:20643800C0B283454FD20898B046554686424FF48076059808BF06460A9858454FF4807095
:2064580018BF0646079880EA0A004FF0000A20430006069808BF00F10C0A1FFA8AF0864275
:206478000AD9385C5FFA89F1484000F01FFE80EA19290AF1010AF0E7149858B10A985845A8
:2064980013D1039800213A464FF48073C0B200F0E7FD07E004984FF4807200EB0B213846FB
:2064B80000F06BFEAA4646460BE04FF480703A464FF48073464600EB0B21404600F0D0FD35
:2064D800AA460134A9E7DDE9024190E76FEA090050E700BF000300202DE9F04742F22C093E
:2064F80040F2100A42F20C0640F2B81715460C468046C4F20909C4F2090AC4F20806C1F276
:20651800000700F00FFA44F20C00C4F2090000210160D9F800003868816927208847306BD4
:206538004FF6FF71CFF6FE6108403063B06F20F48070B0673868016B4FF4806088473868B7
:20655800016B4FF4816088473868016B4FF4C060884742F22800C6F2080001210160C6F829
:2065780080413160DAF80000800705D4681C08BF4FF04045CAF80C50D9F80000F0698007A1
:20659800FCD500BF072000F023FC0228FAD1B8F1000F16D144F20004C4F20304386A816807
:2065B800204688470428F9D0012804D1386A0321426820469047D6F8180220F00300C6F835
:2065D80018023868806BBDE8F047004770B541F21C30C5F20000066840F2B014C1F2000465
:2065F80000F010FD40F28440C4F2602000250560206C806C804740F28010C4F22830006859
:2066180050B140F28051C4F22031B6F1FF30096818BF304600F03CF842F28C11C4F208010F
:206638000D6042F24801C4F203010A6840F23913282063F31B42C4F209000A60016801F42C
:206658004051B1F5805F09D101684FF6EF72CFF6FC42114001F50032026001600025C4F209
:2066780024350126EE612068016A1420884742F20000C4F20900016841F4E02101600C201E
:20669800C4F268202E6000BF01680029FCD170BDF0B581B044F6AC71C5F200014A6846F2FC
:2066B800092605469007C4F2080605D40868F02242EA104086F84D004AF20440C4F20C0009
:2066D8004FF0012202604AF2000040F2F017C4F20C00C1F2000700888C6838680168204602
:2066F800884704F04070B0F1807F04BF022030703868214642682846904700F053F941F285
:206718000C40C5F2000000684BF20E02C0F30531C4F20C021170C1054FF0130158BF232107
:2067380040237354382101EA901000F56050A2F85C003868816820468847022000F0E4FAEA
:2067580040F29440C4F260200121016001B0F0BD2DE9FF41274E05468846306841690620B8
:206778008847062000F0F4FA0128FAD13068C1694FF4A0608847204C204F0120206038684A
:206798008007FCD53068C1694FF4807088470120206038688007FCD5194F1A49002200231C
:2067B800386920F00F0038610320F861F06804680820CDE900504FF08040A04756F8040CB6
:2067D800082109224FF0FF33446C4FF08040CDF80080A047386840F00200386003ACF06890
:2067F800214602694FF0804090470028F7D1BDE8FF8100BFB80100102820086028200840FC
:2068180004000040006CDC022DE9F043C1B0814690070DD188180D461446411E1F48006861
:20683800B1FBF0F1B2FBF0F68E4298BF2C2904D9FF2040B241B0BDE8F083B5FBF0F101FB20
:206858001050002818BF0131C8B250FA86F7F0B2874205D900F0A2FB0136FF28F7D1E7E784
:206878004FF480760DF10408B5B1B0B24246854238BF2E46B7B24846394600F0A3F9002811
:20689800D6D0204641463A4600F0C2FA0028CFD1ED1B3C44B944E7E70020CAE70004002011
:2068B8002DE9F84F06461E4814460D464FF002094FF4801AE84683467DB300F055F948BB75
:2068D80000F0B8FB30BB300A8DF800908DF803608DF80200300C8DF80100F0B2CBF810A07D
:2068F800C0F580774046BD4238BF2F46042100F03BFB58B92046394600F036FB30B9ED1B90
:206918003E445846CBF800A03C44D5E74FF48010CBF800000020BDE8F88F0120BDE8F88F71
:2069380090200240B0B51020C4F209000168890733D444F6B470C5F200000068810248BFF2
:20695800B0BD40F2EC11C1F2000109680124096804EB20758847C0F13E00C110072207295C
:20697800B8BFC21041F20C30C5F200000068AA42C0F30320D8BF2A46801A0F28A8BF0F20F8
:206998000128D8BF204646F20D2140F0F000C4F2080181F84D000878B0BDFD21C4F20001EC
:2069B800C160B0BD44F6B070C5F200000168C90633D441F25031C5F2000109684CF2004284
:2069D800C3F6FF7211404CF20002C1F60742914218BF704740680F22010480034FF00000E3
:2069F80058BF081610F1240FD8BF6FF023001B28A8BF1B2024300321A1EB201122FA01F1D5
:206A180022EA00004FF6FF7222FA00F040EA01404AF21801C4F20C0108607047BCB518481D
:206A38000A21FFF795FE17480068C16B14208847154C4FF48015AB200121256025618DF8DE
:206A580007000DF1070000F08FFA256088B94FF4C870ADF80400BDF80400BDF8040028B164
:206A7800BDF804000138ADF80400F6E700F07CF818B100F041FA0020BCBD00F007F8BCBD2D
:206A980000093D00B4010010902002407CB51648164D4FF48016042101902E6101A800F038
:206AB80063FA08B12E6006E0114C0221204600F06FF92E6008B100207CBD0E4B2278647887
:206AD80003F12001186840B11D79AA4202D15D79AC4201D00833F5E71946074A00281160CE
:206AF80018BF01207CBD00BF90FFFF009020024008040020387205000C040020F0B540F628
:206B1800FF7C10F8013B0024082CFAD00646DF0716F8015B0AD1467806F00F070337122FC0
:206B38000AD187783A0609D403300DE001F8015B304601345B08E7E7023006E0C27807F0AC
:206B58007F07043047EAC2171237320942EA0515654508BFF0BDED43002FEAD04A5D013F71
:206B78000A700131F8E7FEE72DE9FC41144E4FF48017052037618DF8070000F0E5FA0DF1E8
:206B980007080DF106050224376040460121376100F0EAF92846012100F0FAF837600028C4
:206BB8004FF001009DF8061008BF24EA41000028EBD002280CBF00206FF00100BDE8FC8142
:206BD80090200240F8B515460C460646FFF7CCFFA0B903208DF803604FF4801704218DF85C
:206BF8000000300A8DF80200300C0A4E8DF801006846376100F0B8F910B137600020F8BD8E
:206C18002846214600F0C4F8B0FA80F037604009F8BD00BF9020024041F218324FF68850E1
:206C3800C5F20002CFF6FF70116810584FF20003C0B27F2888BF00201268C0F6FF731A40AE
:206C580041F20003C0F6B4339A4207D1090F022906D307D0032901D1153004E0FF2002E07A
:206C78000A2000E00B3040B27047FEE770B5104C2068016A4FF4807088470E4E0E4D0120DB
:206C9800306028688007FCD52068016A4FF4A06088470120306028688007FCD52068816954
:206CB80006208847062000F053F80228FAD170BDB8010010282008602820084010B50E4C1C
:206CD8002068416904208847042000F041F80128FAD12068C1694FF4A06088470748012101
:206CF8000160074801688907FCD50648012101604160816010BD00BFB801001028200860AA
:206D180028200840141A444280B546F2000147F2702E47F2742CC4F20C01C0F2050EC0F2BF
:206D3800050C00BF0B6800BF4A689342FCD1834208BF80BD1EF803201EF800309A424FF082
:206D5800FF3338BF01231A441CF802200A60E9E742F24012C4F208021168526D012323EA51
:206D7800000C02F0040201F00103D21818BF0122830742EA0C0248BF02EA510240074FF08E
:206D9800020048BF02EA9102002A18BF01207047F8B50E4F0C4605466E468CB13868002121
:206DB80082684FF08040904760B138683146C2684FF0804090470098013C05F8010BECE722
:206DD8000020F8BD4FF0FF30F8BD00BFC401001042F24011C4F208010A68496D02F00103AD
:206DF80001F00401C91818BF01210140830744BF02F0020341EA5301400744BF02F0040027
:206E180041EA90010220002918BF01207047FEE7F8B514460D46064600F052F80746284624
:206E38003146224600F072F904462FB1054801210068426804489047002C18BFFF242046A6
:206E5800F8BD00BFD801001000400340F8B51C46154601EB403600F033F807462846314621
:206E7800224600F053F904462FB1054801210068426804489047002C18BFFF242046F8BD47
:206E9800D801001000400340FEB50C4605462C276E4678190C213246FFF794FE58B19DF8BB
:206EB800000001280AD001994FF0FF3011B10F44A742EED3FEBD4FF0FF30FEBD0298FEBDB7
:206ED80070B50B4E0B4C3068816820468847054600060AD0306800214268204690473068AC
:206EF8008168204688470028F9D1E8B270BD00BFD801001000400340BCB50C4C4FF48015D7
:206F1800B920012125618DF807000DF1070000F02BF825600024092C04D80134FFF7B6FD9C
:206F38000028F8D1FFF7A2FEBCBD00BF9020024070B50948094C84420BD0094D094EB54278
:206F580007D0F5E8020110F8012B54F822209047F5E700BF00BF70BD847205007872050058
:206F780094720500A4720500F8B50B4F0C4605466E4674B1386815F8011B42684FF08040E4
:206F9800904738683146C2684FF080409047013CEFE70020F8BD00BFC4010010B0B50446C0
:206FB800FFF78EFF0546600300F0BFF804462DB1054801210068426804489047E0B200285B
:206FD80018BFFF20B0BD00BFD8010010004003400A4880F308880A48016841F470010160F4
:206FF80000BF00BF00F015F908B1FFF7A1FF0020FFF766F8012000F00EF900BF0040012002
:2070180088ED00E080B541F21830C5F2000000684FF20001C0F6FF71084041F20001C0F69A
:20703800B431884204D1FFF7F7FD1328C8BF80BDFEE70000BCB5094C4FF480150620012100
:2070580025618DF807000DF10700FFF78DFF2560002818BF6FF00200BCBD00BF9020024070
:2070780070B51C46154601EB403600F0ADF8210405D016F8011B013C05F8011BF7E708B906
:2070980000F0B6F8002070BD70B514460D46064600F09AF82CB116F8011B013C05F8011BF0
:2070B800F8E708B900F0A4F8002070BD10B5064A08210B0608BF10BD82EA5003C40708BF0B
:2070D800430801391846F4E72083B8EDB0B5064907231A46002B04D48C5C855C531EA54230
:2070F800F7D0D00FB0BD00BF68720500B0B5064907231A46002B04D48C5C855C531EA54265
:20711800F7D0D00FB0BD00BF6072050080B540F2A813C1F200031B689B69984740F2844179
:20713800C4F2602100220A6080BD80B540F2A811C1F2000109684969884740F28441C4F2C4
:20715800602100220A6080BDBCB5054D01AC2868214602694FF0804090470028F7D1BCBDBC
:20717800C401001080B500F03DF8002000214FF0FF32BDE88040FFF7AFB910B530B1431E4D
:2071980001391AB18C5C9C54013AFAE710BD0000034904300860D0F800D008680068004772
:2071B8000404002010B500239A4208BF10BDCC5CC4540133F8E7D0F80300002218B101F835
:2071D800012B0138FAE7704780B500F00BF8002818BF012080BD0B46D0F80320C11D18469D
:2071F80000F01CB80020EFF3108072B6704770470020EFF3108062B67047704701484021C9
:207218000160704790200240FFF7E0F9FFF7E0BEFEE70120704700BFFEE70000FFF7C2BF11
:2072380000002000C215000000001000C214000000000800EF12000000000400EF1100004C
:2072580000000000000000004F4144204E564D3143433133783252310102000302000103DD
:20727800156B0500EF710500CF710500020000000A0100000001000000FFF00084720500CF
:0C729800000300208C7205000C04002094
:207FA80000008001100080FFFDFF58003AFFBBF3FFFFFFFFFFFFFFFFFFFFFFFFFFFFFFFF7E
:207FC800FFFFFFFFFFFFFFFFFFFFFFFFFFFFFFFFFFFFFF00FFFFFFFF00FFFFFF00C5C5FF2A
:187FE800000000FF00600500FFFFFFFFFFFFFFFFFFFFFFFFFFFFFFFF2D
:00000001FF
